{
  "transactions": [
    {
      "hash": "0xe0b4c5aaca07147092f8aeb64961d0ca45b120d2cf529d3a9a54938bdabc2279",
      "transactionType": "CALL",
      "contractName": null,
      "contractAddress": "0x844fad5bd854946037f8bd3ed254ec5edee72769",
      "function": "mintNft(string)",
      "arguments": [
        "\"ipfs://bafybeig37ioir76s7mg5oobetncojcm3c3hxasyd4rvid4jqhy4gkaheg4/?filename=0-PUG.json\""
      ],
      "transaction": {
        "from": "0x60d232f4a4f465175edae1626da3898166ab1307",
        "to": "0x844fad5bd854946037f8bd3ed254ec5edee72769",
        "gas": "0x3d60d",
        "value": "0x0",
        "input": "0xda86f4a900000000000000000000000000000000000000000000000000000000000000200000000000000000000000000000000000000000000000000000000000000057697066733a2f2f62616679626569673337696f6972373673376d67356f6f6265746e636f6a636d3363336878617379643472766964346a71687934676b61686567342f3f66696c656e616d653d302d5055472e6a736f6e000000000000000000",
        "nonce": "0xb",
        "chainId": "0xaa36a7"
      },
      "additionalContracts": [],
      "isFixedGasLimit": false
    }
  ],
  "receipts": [
    {
      "status": "0x1",
      "cumulativeGasUsed": "0x5279d5",
      "logs": [
        {
          "address": "0x844fad5bd854946037f8bd3ed254ec5edee72769",
          "topics": [
            "0xddf252ad1be2c89b69c2b068fc378daa952ba7f163c4a11628f55a4df523b3ef",
            "0x0000000000000000000000000000000000000000000000000000000000000000",
            "0x00000000000000000000000060d232f4a4f465175edae1626da3898166ab1307",
            "0x0000000000000000000000000000000000000000000000000000000000000000"
          ],
          "data": "0x",
          "blockHash": "0x3274bae487de00b17d798d4e56ff54a020a0617449da45e19720505e12cbb90b",
          "blockNumber": "0x62e278",
          "transactionHash": "0xe0b4c5aaca07147092f8aeb64961d0ca45b120d2cf529d3a9a54938bdabc2279",
          "transactionIndex": "0x34",
          "logIndex": "0x44",
          "removed": false
        }
      ],
      "logsBloom": "0x00000000000000000000000000000000000000000000000000000000000000000000000000000000000000000000000000000000000000000000000000000000000000000000000002000008000000000000000000000000000040000000000000000000020000000000000000000800000000000800000000000010000000000000000000000000000000000000000000000000000000000000000000000000000000000000000000000000000000000000000000001000000000000000000000000002000000000000080000000000000000000000000000000000000020000000000000000000000000000000000000000000000000000000000000000080",
      "type": "0x2",
      "transactionHash": "0xe0b4c5aaca07147092f8aeb64961d0ca45b120d2cf529d3a9a54938bdabc2279",
      "transactionIndex": "0x34",
      "blockHash": "0x3274bae487de00b17d798d4e56ff54a020a0617449da45e19720505e12cbb90b",
      "blockNumber": "0x62e278",
      "gasUsed": "0x2c6fe",
      "effectiveGasPrice": "0x4ca2c7b27",
      "from": "0x60d232f4a4f465175edae1626da3898166ab1307",
      "to": "0x844fad5bd854946037f8bd3ed254ec5edee72769",
      "contractAddress": null
    }
  ],
  "libraries": [],
  "pending": [],
  "returns": {},
  "timestamp": 1723392376,
  "chain": 11155111,
  "commit": "4915ac0"
}